:020000040800F2
:1000000000500020C53C0008CD020008CF020008C7
:10001000D1020008D3020008D50200080000000049
:10002000000000000000000000000000D7020008EF
:10003000D902000800000000DB020008DD02000811
:100040000D3D00080D3D00080D3D00080D3D000868
:100050000D3D00080D3D00080D3D00080D3D000858
:100060000D3D00080D3D00080D3D00080D3D000848
:100070000D3D00080D3D00080D3D00080D3D000838
:100080000D3D00080D3D00080D3D00080D3D000828
:10009000E50200080D3D00080D3D00080D3D00087B
:1000A0000D3D00080D3D00080D3D00080D3D000808
:1000B0000D3D00080D3D00080D3D00080D3D0008F8
:1000C0000D3D00080D3D00080D3D00080D3D0008E8
:1000D0000D3D00080D3D00080D3D00080D3D0008D8
:1000E0000D3D00080D3D00080D3D0008000000001A
:1000F0000000000000000000000000000000000000
:0C01000000000000000000005FF808F1A3
:10010C0010B5054C237833B9044B13B10448AFF345
:10011C0000800123237010BD10010020000000009E
:10012C00683D000808B5034B1BB103490348AFF306
:10013C00008008BD0000000014010020683D00088C
:10014C0070B588B0002404940594069407941C4B55
:10015C009A6942F010029A619A6902F010020192B7
:10016C00019A9A6942F020029A619A6902F020027F
:10017C000292029A9A6942F004029A619B6903F016
:10018C0004030393039B0F4E01224FF4005130469E
:10019C0002F08DFF4FF4005304930125059506944E
:1001AC000223079304A9304602F068FEC02304938F
:1001BC000594069504A9044802F060FE08B070BDD1
:1001CC0000100240001001400008014072B6FEE72A
:1001DC0000B595B0282200210DEB020003F0B6FD0E
:1001EC0000230593069307930893099301930293B5
:1001FC000393049301220A924FF480330B930E92D3
:10020C000222119212934FF4801313930AA802F056
:10021C00B3FAD0B90F230593022306930023079357
:10022C004FF4806208920993012105A802F0E4FCC6
:10023C0068B9102301934FF48003049301A802F0D2
:10024C0091FD30B915B05DF804FBFFF7BFFFFFF768
:10025C00BDFFFFF7BBFF000008B502F053FAFFF734
:10026C00B7FFFFF76DFF00F0CDF800F085F88021A7
:10027C00114802F015FF0028F7D12D233A229021C6
:10028C0000F08AF800224FF400510C4802F00FFFE6
:10029C008021094802F004FF0128F9D118233A22E1
:1002AC008021002000F078F801224FF4005103481F
:1002BC0002F0FDFED9E700BF00080140001001402C
:1002CC00FEE7FEE7FEE7FEE7FEE770477047704784
:1002DC0008B502F029FA08BD08B5024800F0D1FFB4
:1002EC0008BD00BF3807002082B00A4B9A6942F063
:1002FC0001029A619A6902F001020092009ADA698D
:10030C0042F08052DA61DB6903F080530193019B68
:10031C0002B070470010024041B330B405781DB3F1
:10032C00134B1A785FFA82FC0132D2B21A70114C5C
:10033C0004F80C501A78D5B20132D2B21A70427845
:10034C0062551A78D5B20132D2B21A7082786255DF
:10035C001A78D5B20132D2B21A70C3786355043907
:10036C00C9B204300029D9D130BC7047704700BFE6
:10037C002D0200202C010020054B1B78054A127819
:10038C00D2B2934202D00433014A1370704700BFBB
:10039C002C0200202D02002038B5174C94F800E0F8
:1003AC000EF1010C5FFA8CFC84F800C00D0945EAD3
:1003BC000010124D05F80E000CF10100C0B22070B7
:1003CC0005F80C10411CC9B221702A544A1CD2B237
:1003DC0022706B54402A00D038BD094803F004FC4D
:1003EC000028FAD140220549054803F001FC024BD4
:1003FC0000221A70F0E700BF7002002030020020CB
:10040C007402002008B500220B490C4802F0C3FE10
:10041C0048B90B49094802F0D5FE38B9074802F033
:10042C00D8FE30B908BDFFF7D1FEF2E7FFF7CEFEDC
:10043C00F4E7FFF7CBFEF5E7000000207402002084
:10044C005800002012230B80004870471C0000202D
:10045C0004230B8000487047300000200023934297
:10046C001ED200B510E00CF1370C01F813C00001DE
:10047C004FEA430C0CF1010C4FF0000E01F80CE0AC
:10048C000133DBB2934209D24FEA107CB0F1204F1A
:10049C00E9D20CF1300C01F813C0E8E75DF804FB6D
:1004AC007047000038B50B4BD3F8E807D3F8EC478E
:1004BC00D3F8F037C01800D138BD074D0822A91C5D
:1004CC00FFF7CCFF042205F112012046FFF7C6FF0F
:1004DC00F2E700BF00F0FF1F3400002008B51A231C
:1004EC000B80FFF7DFFF014808BD00BF3400002080
:1004FC0008B50A4628B90549054803F0C2FA03486D
:10050C0008BD0249024803F0BCFAF8E738050020A0
:10051C00803D000810B50A46034C2146034803F001
:10052C00B0FA204610BD00BF38050020983D0008E9
:10053C0008B50A4628B90549054803F0A2FA03484C
:10054C0008BD0249024803F09CFAF8E73805002080
:10055C00AC3D000808B50A4628B90549054803F022
:10056C0090FA034808BD0249024803F08AFAF8E7FA
:10057C0038050020B83D0008022805D8DFE800F057
:10058C0005040200012070470220704702680E4BE0
:10059C009A4200D0704700B583B003F5DA33DA69BC
:1005AC0042F40002DA61DB6903F400030193019B5E
:1005BC0000221146142002F093FD142002F0C8FD15
:1005CC0003B05DF804FB00BF005C004008B500F50B
:1005DC002C71D0F8E80202F014FE08BD08B501EB4E
:1005EC00810300EBC303D3F87C21D0F8E80202F0BE
:1005FC0035FE08BD08B501EB810300EBC303DA6BD4
:10060C00D0F8E80202F070FE08BD08B5D0F8E80298
:10061C0002F011FF08BD10B504468368022B09D106
:10062C000121D4F8E80202F0EFFED4F8E80202F05F
:10063C00C3FE10BDFFF7CAFDF2E7000010B504467B
:10064C00D0F8E80202F0E3FEA36923B1024A136971
:10065C0043F00603136110BD00ED00E008B5D0F8BF
:10066C00E80202F0DDFE08BD10B504461948C0F8DA
:10067C00E842C4F8C002184B03600823436002230D
:10068C00836000238361C361036200F015F9F0B944
:10069C00182300221146D4F8C00201F011F8582397
:1006AC0000228021D4F8C00201F00AF8C0230022F5
:1006BC000121D4F8C00201F003F84FF4807300223A
:1006CC008121D4F8C00200F0FBFF002010BDFFF721
:1006DC007DFDDDE738070020005C004008B5D0F850
:1006EC00C00200F075F9FFF747FF08BD08B5944646
:1006FC001A466346D0F8C00200F0ADFEFFF73CFF8F
:10070C0008BD08B5D0F8C00200F0E7FEFFF734FFD3
:10071C0008BD08B5D0F8C00200F05BFFFFF72CFF56
:10072C0008BD08B5D0F8C00200F08FFFFFF724FF1A
:10073C0008BDD0F8C03211F0800F08D101F07F0154
:10074C0001EB810103EBC10191F86A01704701F0E3
:10075C007F01013101EB810103EBC1018878704706
:10076C0008B5D0F8C00200F078FDFFF705FF08BD12
:10077C0008B5D0F8C00200F004FFFFF7FDFE08BD7D
:10078C0008B5D0F8C00200F0DAFEFFF7F5FE08BDA0
:10079C0000487047240A00207047704738B512F49F
:1007AC00804F44D00468B4F850309BB291F800C02C
:1007BC0003EBCC03023304EB4303B3F80044C4F360
:1007CC0009048B69A34228D31B1B8B618B697BB9F2
:1007DC00056835F82C309BB223F4804323F070036A
:1007EC0083F4005343F4004343F0800325F82C308A
:1007FC0012F0400F0ED002680D7832F825309BB203
:10080C0023F4E04323F0700343F4004343F0C003AC
:10081C0022F8253024B9204638BD00238B61D5E75A
:10082C0023460A894969006801F02DFFF3E7046843
:10083C00B4F850309BB291F800C003EBCC030633F4
:10084C0004EB4303B3F80044C4F309048B69A342DB
:10085C002FD31B1B8B618B697BB9056835F82C304A
:10086C009BB223F4804323F0700383F4005343F4CE
:10087C00004343F0800325F82C3012F0400F0FD1C9
:10088C00026891F800C032F82C309BB223F4E0439C
:10089C0023F0700343F4004343F0C00322F82C30E0
:1008AC00002CB8D023464A894969006801F0EBFE58
:1008BC00B1E700238B61CEE770B586B0002800F05D
:1008CC008580044690F8A932EBB1032384F8A93251
:1008DC00206800F021FF254655F8106BEC460FCD33
:1008EC00ACE80F002B68CCF80030231D0ECB304643
:1008FC0000F002FF054658B1022384F8A932012505
:10090C00284606B070BD80F8A832FFF73FFEDCE742
:10091C000021206800F00AFF2B461AE05A1C02EB5B
:10092C00820104EBC1010120487002EB820104F842
:10093C00313003EB830104EBC101CB8602EB820C5B
:10094C0004EBCC0C00208CF803008863C8630864AB
:10095C00D3B261688B42E1D316E005EB850304EB5F
:10096C00C303002283F8692183F8685183F86B2153
:10097C00C3F87821C3F87C2105EB850304EBC30392
:10098C00C3F880210135EDB2A942E6D8254655F8C9
:10099C00106BEC460FCDACE80F002B68CCF8003098
:1009AC00231D0ECB304600F0C3FE054620B10223BA
:1009BC0084F8A9320125A3E7002384F8243001230D
:1009CC0084F8A932206801F0E9F999E7012597E745
:1009DC0038B590F8A832012B11D00446012580F8C7
:1009EC00A852006800F08FFE29462046FFF7D5FE7E
:1009FC00206801F0D1F9002084F8A80238BD02204B
:100A0C00FCE770B505460C46164612F0400F00F098
:100A1C000D810268B2F850309BB2097803EBC10328
:100A2C00023302EB4303B3F80024C2F30902A369B7
:100A3C00934252D99B1AA361A369002B6AD16378A4
:100A4C00002B4DD12B68B3F8502092B2134403EB1A
:100A5C000111B1F804349BB223F4F8439BB2A1F812
:100A6C000434B1F804346FEA43436FEA53439BB246
:100A7C00A1F804342B686278002A3ED1B3F85020D8
:100A8C0092B21344227803EB0213B3F80C2492B203
:100A9C0022F4F84292B2A3F80C24B3F80C246FEAB7
:100AAC0042426FEA524292B2A3F80C2421782846B3
:100ABC00FFF7A0FD16F4804F41D02A68217832F858
:100ACC0021309BB223F4E04323F0700343F4404302
:100ADC0043F0800322F8213031E00023A361ABE71F
:100AEC00012BC7D12B68B3F8502092B2134403EBFF
:100AFC0001110023A1F80434BCE7012AD6D1B3F8C4
:100B0C00502092B21344227803EB02130022A3F874
:100B1C000C24CBE716F4804F0DD0286830F8213028
:100B2C009BB223F4E04323F0700343F4404343F0BF
:100B3C00800320F8213094F82430012B12D02A683D
:100B4C00217832F821309BB223F4E04323F04003A8
:100B5C0083F0300343F4004343F0800322F8213048
:100B6C00002070BD636913446361E3691344E3615E
:100B7C00216A236999421FD3C91A21626278002A1B
:100B8C003FD12A68B2F8501089B20A44217802EB9E
:100B9C000112EBB9B2F8041489B221F4F84189B20C
:100BAC00A2F80414B2F804146FEA41416FEA5141FF
:100BBC0089B2A2F8041426E021B9002384F8243069
:100BCC001346DBE7002384F8243023620B46D5E779
:100BDC003E2B09D8590813F0010F00D001318902BE
:100BEC0089B2A2F804140EE0590913F01F0F00D1BA
:100BFC0001396FEAC1616FEA514189B2A2F804145C
:100C0C0001E0012A06D09BB222896169286801F0B3
:100C1C00CDF894E72A68B2F8501089B20A442178CA
:100C2C0002EB011299B2A2F80414ECE70268B2F8D4
:100C3C0050309BB2097803EBC103063302EB43033C
:100C4C00B3F80024C2F30902A369934253D39B1A4D
:100C5C00A361A369002B6BD16378002B4ED12B6859
:100C6C00B3F8502092B2134403EB0111B1F80434E1
:100C7C009BB223F4F8439BB2A1F80434B1F80434CA
:100C8C006FEA43436FEA53439BB2A1F804342B68D9
:100C9C006278002A3FD1B3F8502092B213442278E4
:100CAC0003EB0213B3F80C2492B222F4F84292B282
:100CBC00A3F80C24B3F80C246FEA42426FEA5242B8
:100CCC0092B2A3F80C2421782846FFF793FC16F473
:100CDC00804F7FF434AF2A68217832F821309BB2F0
:100CEC0023F4E04323F0700343F4404343F08003C8
:100CFC0022F8213023E70023A361AAE7012BC6D1F8
:100D0C002B68B3F8502092B2134403EB011100236B
:100D1C00A1F80434BBE7012AD5D1B3F8502092B224
:100D2C001344227803EB02130022A3F80C24CAE725
:100D3C0016F4804F0DD1286830F821309BB223F483
:100D4C00E04323F0700343F4404343F0800320F866
:100D5C00213094F82430012B7FF4F1AE63691344F5
:100D6C006361E3691344E361216A236999421FD3E8
:100D7C00C91A21622A68617800293ED1B2F8501054
:100D8C0089B20A44217802EB0112EBB9B2F80C14C7
:100D9C0089B221F4F84189B2A2F80C14B2F80C14FF
:100DAC006FEA41416FEA514189B2A2F80C1426E076
:100DBC0021B9002384F824301346DBE70023236297
:100DCC0084F824300B46D5E73E2B09D8590813F08C
:100DDC00010F00D00131890289B2A2F80C140EE087
:100DEC00590913F01F0F00D101396FEAC1616FEA85
:100DFC00514189B2A2F80C1401E0012906D09BB232
:100E0C0062896169286800F0D1FF98E6B2F8501049
:100E1C0089B20A44217802EB011299B2A2F80C149F
:100E2C00EDE72DE9F04105462868B0F8443013F49D
:100E3C00004F00F00F82B0F84440A3B214F00F043E
:100E4C0040F0D88013F0100F61D003889AB213F4DD
:100E5C00006F40F0938012F4004FE5D0038823F02C
:100E6C0070031B051B0D43F0800303802868B0F84A
:100E7C0050309BB295F8682103EBC203063300EBAC
:100E8C004303B3F80034C3F30903C5F884318BB1C1
:100E9C00D5F87C1171B1B5F86E2101F0F4FBD5F8E1
:100EAC008421D5F87C311344C5F87C3100212846C7
:100EBC00FFF794FB2B681A8812F4006FB4D1B3F8C7
:100ECC00502092B21344D5F87821002A79D1B3F886
:100EDC000C2492B222F4F84292B2A3F80C24B3F888
:100EEC000C246FEA42426FEA524292B2A3F80C24ED
:100EFC002A6813889BB223F4804323F0700383F495
:100F0C00405343F4004343F0800313808CE7038881
:100F1C009BB223F4E14323F070036FEA43436FEA7F
:100F2C0053439BB203802A68B2F850309BB295F8B9
:100F3C00281003EBC103023302EB4303B3F8003474
:100F4C00C3F309036B64EA6B1344EB63002128467B
:100F5C00FFF750FB95F82430002B3FF465AF2B6C5A
:100F6C00002B7FF461AF95F824302A6843F080039E
:100F7C00A2F84C30002385F8243055E7B0F85030F7
:100F8C009BB295F8682103EBC203063300EB4303D5
:100F9C00B3F80034C3F30903C5F88431B5F86E21F6
:100FAC0005F52C7101F06FFB2A68138823F0700390
:100FBC001B051B0D43F0800313802846FFF706FB2F
:100FCC0032E73E2A09D8510812F0010F00D0013146
:100FDC008A0292B2A3F80C248AE7510912F01F0F6F
:100FEC0000D101396FEAC1626FEA524292B2A3F8A2
:100FFC000C247DE730F824309EB213F4004F4FD10F
:10100C0016F0800F3FF410AF621C02EB820105EB6F
:10101C00C101286830F824309BB223F4E14323F05B
:10102C0070036FEA43436FEA53439BB220F82430BA
:10103C00CB78032B07D033B1022B40F0068116F48A
:10104C00807F40F002812868B0F850309BB2621C5F
:10105C0002EB820215F8326003EBC603023300EB9D
:10106C004303B3F80034C3F3090304EB840205EB28
:10107C00C202126C9A4240F2D48004EB840705EB56
:10108C00C707D21A3A6404EB840205EBC202126C55
:10109C00002A40F0CD8031462846FFF7ABFAC3E674
:1010AC0030F8243023F070031B051B0D43F0800334
:1010BC0020F8243004EB8401C90001F5B47105EB70
:1010CC00010804EB840305EBC30393F87431002B84
:1010DC0042D12868B0F850309BB204EB840205EB87
:1010EC00C20292F8682103EBC203063300EB430300
:1010FC00B3F80074C7F3090717BB04EB840305EBC3
:10110C00C303D3F884213A44C3F88421D3F87C2157
:10111C003A44C3F87C21D3F880313BB104EB84030F
:10112C0005EBC303D3F878319F4275D204EB8403EB
:10113C0005EBC30393F868112846FFF74FFA5FE7F6
:10114C0004EB840105EBC1013B46B1F86E21D1F8EB
:10115C007C1101F098FAD0E704EB840305EBC30390
:10116C0093F86B31022B35D0296804EB840205EB24
:10117C00C20292F8680131F820309BB223F4E043AC
:10118C0023F0700343F4004343F0C00321F82030F4
:10119C00286892F8682130F8223013F4804F20D060
:1011AC00B0F850309BB203EBC203023300EB4303A5
:1011BC00B3F80074C7F30907002F9ED004EB840129
:1011CC0005EBC1013B46B1F87021D1F87C1101F05F
:1011DC005AFA92E7324641462846FFF7DFFA0746AD
:1011EC008BE7B0F850309BB203EBC203063300EB35
:1011FC004303B3F80074C7F30907002F3FF47DAF26
:10120C0004EB840105EBC1013B46B1F87221D1F826
:10121C007C1101F038FA70E74146286800F0DAFDDD
:10122C00EEE604EB840205EBC202002717642AE702
:10123C0004EB840205EBC202D66B1E44D663546CDD
:10124C002344536400F0C6FDEEE532462846FFF712
:10125C00D8FBE9E50020BDE8F08190F8A832012B1D
:10126C000DD010B50446012380F8A83280F8241064
:10127C00006800F08BFD002084F8A80210BD02204D
:10128C00704710B584B00446006800F089FD10F476
:10129C00004F47D1206800F083FD10F4806F45D1DA
:1012AC00206800F07DFD10F4804F08D02268B2F861
:1012BC0044309BB223F480439BB2A2F844302068A4
:1012CC0000F06EFD10F4005F08D02268B2F84430D4
:1012DC009BB223F400539BB2A2F84430206800F078
:1012EC005FFD10F4805F32D1206800F059FD10F4DE
:1012FC00006F78D1206800F053FD10F4007F40F0AF
:10130C009D80206800F04CFD10F4807F08D022688E
:10131C00B2F844309BB223F480739BB2A2F84430F1
:10132C0004B010BD2046FFF77CFDB3E72268B2F88D
:10133C0044309BB223F480639BB2A2F84430204625
:10134C00FFF769F900212046FFF787FFA8E722681D
:10135C00B2F840309BB223F004039BB2A2F84030A9
:10136C002268B2F840309BB223F008039BB2A2F87B
:10137C0040302046FFF772F92268B2F844309BB235
:10138C0023F480539BB2A2F84430ADE7226832F8C4
:10139C00231004AA02EB430222F8101C0133DBB227
:1013AC00072BF3D92268B2F840309BB243F001030B
:1013BC00A2F840302268B2F840309BB223F001030F
:1013CC009BB2A2F840302368B3F8442012F4806F2B
:1013DC00F9D0B3F8442092B222F4806292B2A3F80E
:1013EC00442000230BE00023DAE7226804A901EB78
:1013FC00430131F8101C22F823100133DBB2072B08
:10140C00F3D92268B2F840309BB243F00803A2F83B
:10141C0040302268B2F844309BB223F400639BB294
:10142C00A2F844302268B2F840309BB243F0040377
:10143C00A2F840302046FFF701F95BE72268B2F8CA
:10144C0044309BB223F400739BB2A2F84430204684
:10145C00FFF7DBF855E710B504468C4611F0800F0A
:10146C002AD101F0070000EB8001C90001F5B47E20
:10147C0004EB0E0100EB800004EBC0004FF0000EFB
:10148C0080F869E10CF0070C81F800C00A61CB70A0
:10149C004A780AB1A1F80EC0022B19D094F8A832E0
:1014AC00012B18D0012384F8A832206800F051F9E0
:1014BC00002084F8A80210BD01F00700013000EBF9
:1014CC00800104EBC1014FF0010E81F801E0D9E776
:1014DC0000230B71E2E70220EDE710B504460B4642
:1014EC0011F0800F1FD101F0070202EB8201C9003D
:1014FC0001F5B471014402EB820200EBC202002040
:10150C0082F8690103F007030B7094F8A832012BE1
:10151C0013D0012384F8A832206800F0D6FA0020FA
:10152C0084F8A80210BD01F00702013202EB82011F
:10153C0000EBC10101204870E4E70220F2E710B58E
:10154C0001F0070404EB8401C90001F5B4710144F6
:10155C0004EB840C00EBCC0CCCF87C21CCF8803167
:10156C000023CCF884318CF869318CF8684124B9AB
:10157C00006800F02FFC002010BD006800F02AFC71
:10158C00F9E710B501F0070404F1010C0CEB8C0128
:10159C0000EBC10104EB840E00EBCE0ECEF83C2028
:1015AC00CEF8403001228EF84C20CEF84830002383
:1015BC00CEF844304A700CEB8C0C00F83C4024B94B
:1015CC00006800F007FC002010BD006800F002FC71
:1015DC00F9E738B501F007054268954231D8044661
:1015EC000B4611F0800F1ED101EB8101C90001F5F2
:1015FC00B471014403EB830300EBC303002283F8B3
:10160C00692101238B700D7094F8A832012B1AD02C
:10161C00012384F8A832206800F042FB5DB1002061
:10162C0084F8A80238BD6B1C03EB830100EBC101ED
:10163C0001224A70E5E704F52C71206800F0B4FB38
:10164C00EDE70120EEE70220ECE70B4601F00F017D
:10165C004268914230D810B5044613F0800F21D166
:10166C0003F0070202EB8201C90001F5B4710144D9
:10167C0002EB820200EBC202002082F86901002218
:10168C008A7003F007030B7094F8A832012B15D065
:10169C00012384F8A832206800F027FB002084F88E
:1016AC00A80210BD03F00702013202EB820100EB2D
:1016BC00C10101204870E2E7012070470220F0E7E9
:1016CC0011F0800F0BD001F00701013101EB81010A
:1016DC0000EBC10152B90A73CB800020704701EBBB
:1016EC008101C90001F5B4710144F3E701220A73C9
:1016FC000B811B0C4B81F0E784B001A880E80E0035
:10170C00002004B0704703460020A3F844004FF4B7
:10171C003F42A3F840207047B0F8403023F47C538C
:10172C005B045B0CA0F84030002070470020704731
:10173C0084B0844601A880E80E000123ACF8403048
:10174C000020ACF84000ACF84400ACF8500004B0F9
:10175C00704710B5034691F800C030F82C2092B2B7
:10176C0022F4EC4222F0700292B2C878032861D8BD
:10177C00DFE800F0555C0258002048F2800E42EA87
:10178C000E0223F82C2091F800C033F82C2092B2D2
:10179C0022F4E04222F070024CEA020242EA0E020B
:1017AC0023F82C200A7B002A40F0C4804A78002AB7
:1017BC0051D0B3F8502092B21A440C7802EB0412B8
:1017CC00B1F806C04FEA5C0C4FEA4C0CA2F800C40E
:1017DC000C7833F8242012F0400F0CD033F824206E
:1017EC0092B222F4E04222F0700242F4004242F043
:1017FC00C00223F82420CA78012A1DD0097833F8B6
:10180C00212092B222F4E04222F0400282F0200227
:10181C0042F4004242F0800223F821206AE042F4B4
:10182C000072AAE742F4C0620020A6E742F480628C
:10183C000020A2E70120A0E7097833F8212092B21A
:10184C0022F4E04222F0400242F4004242F08002D4
:10185C0023F821204EE0B3F8502092B21A440C78B1
:10186C0002EB0412B1F806C04FEA5C0C4FEA4C0CC8
:10187C00A2F808C4B3F8502092B21A440C7802EBC8
:10188C0004120C69BCBBB2F80CC41FFA8CFC2CF40F
:10189C00F84C1FFA8CFCA2F80CC4B2F80CC46FEA1A
:1018AC004C4C6FEA5C4C1FFA8CFCA2F80CC40C7804
:1018BC0033F8242012F4804F0CD033F8242092B249
:1018CC0022F4E04222F0700242F4404242F08002E4
:1018DC0023F82420097833F8212092B222F4804294
:1018EC0022F0700282F4405242F4004242F0800234
:1018FC0023F8212010BD3E2C0DD84FEA540C14F0C7
:10190C00010F01D00CF1010C4FEA8C2C1FFA8CFC4E
:10191C00A2F80CC4CBE74FEA541C14F01F0F01D1F2
:10192C000CF1FF3C6FEACC646FEA5444A4B2A2F809
:10193C000C44BCE791F800C033F82C2092B222F48E
:10194C00E04222F0700242F4014242F0800223F89D
:10195C002C20B3F8502092B21A4491F800C002EB3C
:10196C000C12B1F808C04FEA5C0C4FEA4C0CA2F810
:10197C0000C4B3F8502092B21A4491F800C002EBA4
:10198C000C12B1F80AC04FEA5C0C4FEA4C0CA2F8EE
:10199C0008C44A78002A41D10C7833F8242012F478
:1019AC00804F0CD033F8242092B222F4E04222F083
:1019BC00700242F4404242F0800223F824200C785A
:1019CC0033F8242012F0400F0CD033F8242092B2BC
:1019DC0022F4E04222F0700242F4004242F0C002D3
:1019EC0023F8242091F800C033F82C2092B222F472
:1019FC00804222F0700282F4405248F2800422436A
:101A0C0023F82C20097833F8212092B222F4E042FA
:101A1C0022F04002224323F821206BE70C7833F8A4
:101A2C00242012F4804F0CD033F8242092B222F4EC
:101A3C00E04222F0700242F4404242F0800223F86D
:101A4C0024200C7833F8242012F0400F0CD033F8FB
:101A5C00242092B222F4E04222F0700242F40042BE
:101A6C0042F0C00223F82420CA78012A1ED00C7838
:101A7C0033F8242092B222F4E04222F0400282F0A9
:101A8C00200242F4004242F0800223F8242009781C
:101A9C0033F8212092B222F4804222F0700242F4F8
:101AAC00004242F0800223F8212023E70C7833F81F
:101ABC00242092B222F4E04222F0400242F400428E
:101ACC0042F0800223F82420E1E70B7B002B46D167
:101ADC004B7813B30A7830F8223013F0400F0CD047
:101AEC0030F822309BB223F4E04323F0700343F42C
:101AFC00004343F0C00320F822300A7830F822303B
:101B0C009BB223F4E04323F0400343F4004343F03F
:101B1C00800320F82230002070470A7830F82230F9
:101B2C0013F4804F0CD030F822309BB223F4E043F6
:101B3C0023F0700343F4404343F0800320F8223039
:101B4C000A7830F822309BB223F4804323F07003E0
:101B5C0043F4004343F0800320F82230DBE74B785A
:101B6C00002B4ED10A7830F8223013F4804F0CD071
:101B7C0030F822309BB223F4E04323F0700343F49B
:101B8C00404343F0800320F822300A7830F82230AA
:101B9C0013F0400F0CD030F822309BB223F4E0430A
:101BAC0023F0700343F4004343F0C00320F82230C9
:101BBC000A7830F822309BB223F4E04323F0700310
:101BCC0043F4004343F0C00320F822300B7830F884
:101BDC00232092B222F4804222F0700248F2800C50
:101BEC0042EA0C0220F823200A7830F822309BB20B
:101BFC0023F4E04323F0400343EA0C0320F82230A3
:101C0C0089E70A7830F8223013F4804F0CD030F882
:101C1C0022309BB223F4E04323F0700343F440439F
:101C2C0043F0800320F822300A7830F8223013F089
:101C3C00400F0CD030F822309BB223F4E04323F059
:101C4C00700343F4004343F0C00320F822300A78B9
:101C5C0030F822309BB223F4E04323F0700343F4BA
:101C6C00404343F0800320F822300B7830F82320D7
:101C7C0092B222F4E04222F0400248F2800C42EA96
:101C8C000C0220F823200A7830F822309BB223F47F
:101C9C00804323F0700343EA0C0320F822303AE728
:101CAC004B788BB10A7830F822309BB223F4E043A6
:101CBC0023F0400383F0100343F4004343F080030C
:101CCC0020F82230002070470A7830F822309BB27E
:101CDC0023F4804323F0700383F4805343F40043D4
:101CEC0043F0800320F82230ECE70B7B002B4BD128
:101CFC004B7833B30A7830F8223013F0400F0CD005
:101D0C0030F822309BB223F4E04323F0700343F409
:101D1C00004343F0C00320F82230CB78012B33D0A2
:101D2C000A7830F822309BB223F4E04323F04003CE
:101D3C0083F0200343F4004343F0800320F8223067
:101D4C0022E00A7830F8223013F4804F0CD030F8AF
:101D5C0022309BB223F4E04323F0700343F440435E
:101D6C0043F0800320F822300A7830F822309BB2FE
:101D7C0023F4804323F0700383F4405343F4004373
:101D8C0043F0800320F822300020704711B98023E3
:101D9C00A0F84C300020704700207047002070479E
:101DAC00B0F8440080B270470020704710B45C1C3F
:101DBC00640800EB420202F5806207E00B78487879
:101DCC0043EA002322F8043B0231013C002CF5D1FC
:101DDC0010BC704770B505460C464B78012B37D0BC
:101DEC000A7B002A40F026838B690A69934240F2F1
:101DFC0004839B1A8B61B5F850309BB22B4421782D
:101E0C0003EB0113002A40F0FC82B3F80C2492B2CD
:101E1C0022F4F84292B2A3F80C24B3F80C246FEA23
:101E2C0042426FEA524292B2A3F80C24227835F85F
:101E3C0022309BB223F4804323F0700383F440538D
:101E4C0043F4004343F0800325F82230002070BD9A
:101E5C008E690A69964200D91646237B002B39D02D
:101E6C00E378022B58D0227835F822309BB223F439
:101E7C00E04323F0700343F4014343F0800325F85F
:101E8C002230236A9B1B2362237835F8232012F01F
:101E9C00400F00F026826278002A40F0CA81B5F823
:101EAC00502092B22A4402EB0313002E40F0A8817A
:101EBC00B3F80C2492B222F4F84292B2A3F80C2498
:101ECC00B3F80C246FEA42426FEA524292B2A3F882
:101EDC000C24B0E1B6B23346E28861692846FFF7BC
:101EEC0065FFB5F850309BB22B44227803EB0213FC
:101EFC00A3F80464227835F822309BB223F4E04333
:101F0C0023F0400383F0300343F4004343F0800399
:101F1C0025F8223000209AE7236A9A4280F05281F9
:101F2C00227835F822309BB223F4E04323F070037F
:101F3C0043F4014343F0800325F82230236A9B1BB2
:101F4C002362237835F8232012F0400F00F09D8097
:101F5C0062788ABBB5F8502092B22A4402EB031384
:101F6C008EB9B3F80C2492B222F4F84292B2A3F8D0
:101F7C000C24B3F80C246FEA42426FEA524292B23C
:101F8C00A3F80C241AE03E2E09D8720816F0010FA3
:101F9C0000D00132920292B2A3F80C240EE0720926
:101FAC0016F01F0F00D1013A6FEAC2626FEA52427B
:101FBC0092B2A3F80C2401E0012A2BD0B3B26289AF
:101FCC0061692846FFF7F2FE636933446361236A53
:101FDC002269934228D99B1B23626378002B40D142
:101FEC00B5F850309BB22B44227803EB0213FEB9A8
:101FFC00B3F8042492B222F4F84292B2A3F8042467
:10200C00B3F804246FEA42426FEA524292B2A3F848
:10201C00042428E0B5F8502092B22A4402EB0313B2
:10202C00B2B2A3F80C24C9E7002222621E46D4E700
:10203C003E2E09D8720816F0010F00D00132920220
:10204C0092B2A3F804240EE0720916F01F0F00D10F
:10205C00013A6FEAC2626FEA524292B2A3F80424C8
:10206C0001E0012B06D0B3B2228961692846FFF743
:10207C009DFE3FE7B5F850309BB22B44227803EB22
:10208C000213B2B2A3F80424EDE762788ABBB5F868
:10209C00502092B22A4402EB03138EB9B3F80424F5
:1020AC0092B222F4F84292B2A3F80424B3F80424B6
:1020BC006FEA42426FEA524292B2A3F804241AE049
:1020CC003E2E09D8720816F0010F00D00132920290
:1020DC0092B2A3F804240EE0720916F01F0F00D17F
:1020EC00013A6FEAC2626FEA524292B2A3F8042438
:1020FC0001E0012A2BD0B3B2228961692846FFF78F
:10210C0055FE636933446361236A2269934228D97B
:10211C009B1B23626378002B40D1B5F850309BB2E7
:10212C002B44227803EB0213FEB9B3F80C2492B2C1
:10213C0022F4F84292B2A3F80C24B3F80C246FEA00
:10214C0042426FEA524292B2A3F80C2428E0B5F84E
:10215C00502092B22A4402EB0313B2B2A3F8042427
:10216C00C9E7002222621E46D4E73E2E09D8720827
:10217C0016F0010F00D00132920292B2A3F80C2497
:10218C000EE0720916F01F0F00D1013A6FEAC2621D
:10219C006FEA524292B2A3F80C2401E0012B06D054
:1021AC00B3B2628961692846FFF700FEA2E6B5F872
:1021BC0050309BB22B44227803EB0213B2B2A3F83B
:1021CC000C24EDE7217835F8212092B222F4E2427A
:1021DC0022F0700242F4004242F0800225F82120E5
:1021EC00B5F8502092B22A44217802EB01129BB22E
:1021FC00A2F80434228961692846FFF7D7FD79E6F5
:10220C003E2E09D8720816F0010F00D0013292024E
:10221C0092B2A3F80C240EE0720916F01F0F00D135
:10222C00013A6FEAC2626FEA524292B2A3F80C24EE
:10223C0001E0012A26D0B3B2628961692846FFF712
:10224C00B5FD636933446361236A2269934223D9E0
:10225C009B1B2362002E3FF44DAE63786BBBB5F82D
:10226C0050309BB22B44227803EB02133E2E17D82E
:10227C00720816F0010F00D00132920292B2A3F84C
:10228C0004241CE0B5F8502092B22A4402EB03134C
:10229C00B2B2A3F80C24CEE7002222621E46D9E784
:1022AC00720916F01F0F00D1013A6FEAC2626FEA91
:1022BC00524292B2A3F8042401E0012B06D0B3B22F
:1022CC00228961692846FFF771FD13E6B5F8503095
:1022DC009BB22B44227803EB0213B2B2A3F8042472
:1022EC00EDE762788ABBB5F8502092B22A4402EB33
:1022FC0003138EB9B3F8042492B222F4F84292B2CA
:10230C00A3F80424B3F804246FEA42426FEA524261
:10231C0092B2A3F804241AE03E2E09D8720816F0E3
:10232C00010F00D00132920292B2A3F804240EE005
:10233C00720916F01F0F00D1013A6FEAC2626FEA00
:10234C00524292B2A3F8042401E0012A26D0B3B27F
:10235C00228961692846FFF729FD6369334463616B
:10236C00236A2269934223D99B1B2362002E3FF4DC
:10237C00C1AD63786BBBB5F850309BB22B4422785F
:10238C0003EB02133E2E17D8720816F0010F00D083
:10239C000132920292B2A3F80C241CE0B5F8502042
:1023AC0092B22A4402EB0313B2B2A3F80424CEE790
:1023BC00002222621E46D9E7720916F01F0F00D1C7
:1023CC00013A6FEAC2626FEA524292B2A3F80C244D
:1023DC0001E0012B06D0B3B2628961692846FFF790
:1023EC00E5FC87E5B5F850309BB22B44227803EB23
:1023FC000213B2B2A3F80C24EDE700228A611A464C
:10240C00F9E43E2A09D8510812F0010F00D001312D
:10241C00890289B2A3F80C1408E5510912F01F0FB8
:10242C0000D101396FEAC1616FEA514189B2A3F859
:10243C000C14FBE4CA78022A45D0012A40F0208112
:10244C0089692269914240F2D480891AA161D3B979
:10245C00B5F850309BB22B44217803EB0113002AC2
:10246C0040F0CB80B3F8041489B221F4F84189B25E
:10247C00A3F80414B3F804146FEA41416FEA514114
:10248C0089B2A3F804146378002B40F0EA80B5F805
:10249C0050309BB22B44217803EB0113002A40F0FF
:1024AC00C580B3F80C2492B222F4F84292B2A3F88D
:1024BC000C24B3F80C246FEA42426FEA524292B2F7
:1024CC00A3F80C24B2E4CBB9B0F850309BB203445F
:1024DC000A7803EB02130A6972BBB3F8042492B2B4
:1024EC0022F4F84292B2A3F80424B3F804246FEA5D
:1024FC0042426FEA524292B2A3F804246378002B52
:10250C004CD1B5F850309BB22B44227803EB02131C
:10251C00226952BBB3F80C2492B222F4F84292B264
:10252C00A3F80C24B3F80C246FEA42426FEA52422F
:10253C0092B2A3F80C2433E03E2A09D8510812F0C9
:10254C00010F00D001318A0292B2A3F80424D5E71E
:10255C00510912F01F0F00D101396FEAC1626FEA05
:10256C00524292B2A3F80424C8E73E2A09D8510873
:10257C0012F0010F00D001318A0292B2A3F80C24A0
:10258C000EE0510912F01F0F00D101396FEAC16240
:10259C006FEA524292B2A3F80C2401E0012B1DD039
:1025AC00E369002B3FF442AC227835F8221044F258
:1025BC00400303EA01008B4302D000287FF436ACC1
:1025CC0035F822309BB223F4E04323F0700343F43C
:1025DC00004343F0C00325F8223027E4B5F850300F
:1025EC009BB22B44227803EB0213228AA3F80C240F
:1025FC00D6E70022A2610A4629E73E2A09D85108EB
:10260C0012F0010F00D00131890289B2A3F8041431
:10261C0039E7510912F01F0F00D101396FEAC1617E
:10262C006FEA514189B2A3F804142CE73E2A0AD868
:10263C00510812F0010F00D001318A0292B2A3F8B6
:10264C000C24FFF7F3BB510912F01F0F00D1013915
:10265C006FEAC1626FEA524292B2A3F80C24FFF700
:10266C00E5BB012B7FF4E2ABB5F850309BB22B44A9
:10267C00217803EB011392B2A3F80C24FFF7D6BB1D
:10268C000120FFF7E4BB10B45C0800EB420000F53E
:10269C00806007E030F8042B0A70C2F307224A70FE
:1026AC000231013C002CF5D113F0010F01D003884D
:1026BC000B7010BC7047000010B504460E4B187818
:1026CC004FF47A73B3FBF0F30C4A1068B0FBF3F0E1
:1026DC0000F04CFD68B90F2C01D901200AE0002252
:1026EC0021464FF0FF3000F0FBFC054B1C60002036
:1026FC0000E0012010BD00BF4E000020540000205F
:10270C005000002008B5074A136843F0100313600B
:10271C00032000F0D3FC0F20FFF7CEFFFDF7E4FD04
:10272C00002008BD00200240034A1168034B1B78AF
:10273C000B441360704700BF380A00204E00002085
:10274C00014B1868704700BF380A002082B0084B54
:10275C001B68084AA2FB03235B0A00FB03F30193EB
:10276C0000BF019B5A1E0192002BF9D102B0704799
:10277C0054000020D34D6210002800F0F18170B598
:10278C0082B00446036813F0010F2CD0994B5B68A0
:10279C0003F00C03042B1DD0964B5B6803F00C0369
:1027AC00082B12D06368B3F5803F41D0002B55D174
:1027BC0003F1804303F504331A6822F480321A6063
:1027CC001A6822F480221A6037E08A4B5B6813F493
:1027DC00803FE7D0874B1B6813F4003F03D063683E
:1027EC00002B00F0BF81236813F0020F75D0814BD2
:1027FC005B6813F00C0F5FD07E4B5B6803F00C032F
:10280C00082B54D02369002B00F08A807A4B0122CC
:10281C001A60FFF795FF0546764B1B6813F0020F05
:10282C0075D1FFF78DFF401B0228F5D903209EE1DF
:10283C00704A136843F480331360636843B3FFF743
:10284C007FFF05466B4B1B6813F4003FCBD1FFF7A2
:10285C0077FF401B6428F5D9032088E1B3F5A02F3E
:10286C0009D0644B1A6822F480321A601A6822F478
:10287C0080221A60E1E703F18043A3F53C331A6828
:10288C0042F480221A601A6842F480321A60D4E74B
:10289C00FFF756FF0546574B1B6813F4003FA2D0B9
:1028AC00FFF74EFF401B6428F5D903205FE1514B25
:1028BC005B6813F4803FA5D14E4B1B6813F0020FDD
:1028CC0003D02369012B40F04F814A4A136823F04F
:1028DC00F803616943EAC1031360236813F0080F1E
:1028EC0033D0A369002B5CD0434B0122C3F8802466
:1028FC00FFF726FF05463F4B5B6A13F0020F21D111
:10290C00FFF71EFF401B0228F5D903202FE1394A9F
:10291C00136823F0F803616943EAC1031360DCE731
:10292C00354B00221A60FFF70BFF0546314B1B6835
:10293C0013F0020FD1D0FFF703FF401B0228F5D98B
:10294C00032014E10120FFF701FF236813F0040FAB
:10295C0000F09680274BDB6913F0805F34D1254B58
:10296C00DA6942F08052DA61DB6903F0805301933B
:10297C00019B0125214B1B6813F4807F26D0E36853
:10298C00012B3DD0002B53D103F1804303F50433CD
:10299C001A6A22F001021A621A6A22F004021A62FE
:1029AC0033E0154B0022C3F88024FFF7C9FE05461F
:1029BC00104B5B6A13F0020FC7D0FFF7C1FE401B30
:1029CC000228F5D90320D2E00025D3E70B4A13687F
:1029DC0043F480731360FFF7B3FE0646074B1B6886
:1029EC0013F4807FCBD1FFF7ABFE801B6428F5D9A5
:1029FC000320BCE000100240000042420070004086
:102A0C005F4A136A43F001031362E36833B3FFF7C1
:102A1C0097FE06465A4B1B6A13F0020F2FD1FFF795
:102A2C008FFE801B41F288339842F3D903209EE03D
:102A3C00052B09D0524B1A6A22F001021A621A6A4B
:102A4C0022F004021A62E0E74D4B1A6A42F00402CB
:102A5C001A621A6A42F001021A62D6E7FFF770FE98
:102A6C000646474B1B6A13F0020F08D0FFF768FEAF
:102A7C00801B41F288339842F3D9032077E0E5B903
:102A8C00E369002B72D03E4A526802F00C02082A0D
:102A9C0056D0022B17D03B4B00221A66FFF750FE84
:102AAC000446374B1B6813F0007F47D0FFF748FEF6
:102ABC00001B0228F5D9032059E0314AD36923F0D1
:102ACC008053D361DCE72F4B00221A66FFF738FEE8
:102ADC0005462B4B1B6813F0007F06D0FFF730FE2A
:102AEC00401B0228F5D9032041E0236AB3F5803F4F
:102AFC001AD023494B6823F47413226A606A024388
:102B0C0013434B601F4B01221A66FFF719FE044654
:102B1C001B4B1B6813F0007F0ED1FFF711FE001B3F
:102B2C000228F5D9032022E0154A536823F4003318
:102B3C00A1680B435360DCE7002018E0002016E08E
:102B4C00012B16D00E4B5B6803F48031226A914244
:102B5C0011D103F47013626A93420ED1002006E087
:102B6C0001207047012002E0012000E0002002B0AB
:102B7C0070BD0120FBE70120F9E70120F7E700BF5A
:102B8C00001002400000424286B0174B0FCB0DF1F3
:102B9C00180C0CE90F0040F20123ADF80430134B74
:102BAC005B6803F00C02082A02D0114806B070478B
:102BBC00C3F3834218326A4412F8100C13F4803FAA
:102BCC000DD00A4B5B68C3F3404318336B4413F8C6
:102BDC00143C074A02FB00F0B0FBF3F0E6E7054BB0
:102BEC0003FB00F0E2E700BFC83D00080010024004
:102BFC0000127A0000093D00002800F0A08070B59A
:102C0C000D460446524B1B6803F007038B420BD254
:102C1C004F4A136823F007030B431360136803F048
:102C2C0007038B4240F08D80236813F0020F17D0FE
:102C3C0013F0040F04D0474A536843F4E063536025
:102C4C00236813F0080F04D0424A536843F46053CE
:102C5C005360404A536823F0F003A1680B43536060
:102C6C00236813F0010F31D06368012B20D0022BA5
:102C7C0025D0384A126812F0020F64D035494A68E0
:102C8C0022F0030213434B60FFF75AFD0646314B0B
:102C9C005B6803F00C036268B3EB820F16D0FFF78E
:102CAC004FFD801B41F288339842F0D9032045E058
:102CBC00284A126812F4003FE0D101203EE0254A78
:102CCC00126812F0007FD9D1012037E0204B1B682D
:102CDC0003F00703AB420AD91D4A136823F007031C
:102CEC002B431360136803F00703AB422DD1236809
:102CFC0013F0040F06D0174A536823F4E063E1681D
:102D0C000B435360236813F0080F07D0114A536824
:102D1C0023F46053216943EAC1035360FFF734FF86
:102D2C000C4B5B68C3F303130B4AD35CD8400B4BBF
:102D3C0018600B4B1868FFF7BFFC002070BD01201A
:102D4C0070470120FAE70120F8E70120F6E700BF01
:102D5C000020024000100240DC3D0008540000201E
:102D6C005000002070B582B00446036813F0010FC8
:102D7C0036D03F4BDB6913F0805F49D13C4BDA69AD
:102D8C0042F08052DA61DB6903F080530193019BBE
:102D9C000125384B1B6813F4807F3BD0344B1B6AE6
:102DAC0013F4407313D0626802F440729A420ED04E
:102DBC002F4A136A23F440702F490126C1F840644E
:102DCC000026C1F84064106213F0010F36D1284A76
:102DDC00136A23F4407361680B431362002D3ED1D8
:102DEC00236813F0020F06D0214A536823F44043A2
:102DFC00A1680B435360236813F0100F34D01C4AA6
:102E0C00536823F48003E1680B43536000202CE0EB
:102E1C000025BEE7174A136843F480731360FFF76D
:102E2C008FFC0646134B1B6813F4807FB6D1FFF75B
:102E3C0087FC801B6428F5D9032016E0FFF780FC83
:102E4C0006460B4B1B6A13F0020FC0D1FFF778FC40
:102E5C00801B41F288339842F3D9032005E0D369F3
:102E6C0023F08053D361BBE7002002B070BD00BFDC
:102E7C0000100240007000400000424270B582B069
:102E8C000024A446A6E0804DAA4210D007D97F4D5D
:102E9C00AA420CD005F58035AA4208D013E0A5F55E
:102EAC008015AA4203D005F57025AA4207D18A687D
:102EBC00002A58D0012A51D04361082403E0A5F51B
:102ECC008015AA42F3D0BEF1FF0F4ED80646BEF1D4
:102EDC00FF0F4CD84FEA8C0233680F25954023EA3C
:102EEC00050304FA02F2134333604B6813F0805F5E
:102EFC006ED0674B9A6942F001029A619B6903F0AC
:102F0C0001030193019B4FEA9C02951C614B53F802
:102F1C0025600CF003039D000F23AB4026EA03064B
:102F2C005D4B984229D003F58063984200F08E8067
:102F3C0003F58063984200F08B8003F58063984220
:102F4C0019D004231AE0CC68BDE7CC680434BAE786
:102F5C00CC680834B7E7CC680C34B4E703610824B8
:102F6C00B1E70024AFE70424ADE7061DAFE7ACF1F1
:102F7C0008029200B0E7032300E00023AB40334388
:102F8C000232444D45F822304B6813F4803F61D037
:102F9C00424A136843EA0E0313604B6813F4003F74
:102FAC005ED03E4A536843EA0E0353604B6813F4F9
:102FBC00801F5BD0394A936843EA0E0393604B68D9
:102FCC0013F4001F58D0354AD36843EA0E03D3607C
:102FDC000CF1010C0A6832FA0CF353D0012303FAFA
:102FEC000CF302EA030E33EA0202F1D14A68122A08
:102FFC003FF649AF122A3FF666AF01A555F822F00D
:10300C00BB2E0008532F00085D2F00086F2F0008FF
:10301C00D32E0008D32E0008D32E0008D32E000880
:10302C00D32E0008D32E0008D32E0008D32E000870
:10303C00D32E0008D32E0008D32E0008D32E000860
:10304C00D32E0008572F0008632F0008012395E7A3
:10305C00022393E7114A136823EA0E0313609CE7DB
:10306C000E4A536823EA0E0353609FE70B4A93689A
:10307C0023EA0E039360A2E7084AD36823EA0E03FF
:10308C00D360A5E702B070BD000022100000311023
:10309C000010024000000140000801400004014003
:1030AC008368194201D001207047002070470AB193
:1030BC00016170470904016170470000074AD36839
:1030CC0023F4E0631B041B0C000200F4E0600343D8
:1030DC0043F0BF6343F40033D360704700ED00E06E
:1030EC0000B5194BDB68C3F30223C3F1070CBCF129
:1030FC00040F28BF4FF0040C03F1040EBEF1060FB1
:10310C0018D9033B4FF0FF3E0EFA0CFC21EA0C01E0
:10311C0099400EFA03F322EA0303194300280BDB50
:10312C000901C9B200F1604000F5614080F800135C
:10313C005DF804FB0023E5E700F00F000901C9B2BC
:10314C00024B1954F4E700BF00ED00E014ED00E071
:10315C00002807DB00F01F02400901239340024ABC
:10316C0042F82030704700BF00E100E00138B0F1B8
:10317C00807F0BD24FF0E0235861054AF02182F892
:10318C0023100020986107221A61704701207047B4
:10319C0000ED00E0704798B108B50346D0F8B402D2
:1031AC0010B10020C3F8B40209B1C3F8B012012168
:1031BC0083F89C121A701846FDF756FA002008BDC9
:1031CC000220704719B1C0F8B412002070470220D9
:1031DC00704708B5FDF782FA002008BD08B5D0F895
:1031EC00B4322BB11B68984700B908BD0220FCE72C
:1031FC000220FAE708B5D0F8B4325B689847002093
:10320C0008BD38B5044600F52A75284600F035F996
:10321C000123C4F89432B4F8AE32C4F8983294F85E
:10322C00A81201F01F03012B0ED0022B11D02BB1D1
:10323C0001F080012046FDF76CFA03E02946204698
:10324C0000F0CAFA002038BD2946204600F0F8FAF2
:10325C00F8E72946204600F023FBF3E738B504468F
:10326C000D4691BB1346D0F89422032A03D0052AAD
:10327C0024D0084633E0D0F86011D0F86421914294
:10328C000DD9891AC0F860118A4206D98AB219463A
:10329C00204600F0F2FC284621E092B2F7E7D0F885
:1032AC00B4321B691BB190F89C22032A04D020462F
:1032BC0000F0EBFC284612E09847F8E70021C0F834
:1032CC009412FDF726FA284609E0D0F8B4329B692F
:1032DC0033B190F89C22032A04D19847002038BDC2
:1032EC000220FCE70220FAE738B504460D46002917
:1032FC0053D11346D0F89422022A0CD0042A00D0C1
:10330C001AB980212046FDF704FA94F8A032012B5B
:10331C003ED0284638BD016A426A91421BD8C16929
:10332C00B1FBF2F302FB13132BB98A4203D8D0F88A
:10333C00983299421CD3D4F8B432DB681BB194F8A0
:10334C009C22032A21D080212046FDF7E2F9204659
:10335C0000F0A6FCD9E78A1A026292B2194600F074
:10336C0084FC00231A4619462046FDF709FACCE7DF
:10337C000022114600F079FC0021C4F898120B468B
:10338C000A462046FDF7FCF9BFE720469847DAE7E6
:10339C00002384F8A0322846BCE7D0F8B4325B692D
:1033AC0033B190F89C22032A04D198470020B1E74E
:1033BC000220AFE70220ADE770B50446402300229F
:1033CC001146FDF793F90125C4F858514026C4F86D
:1033DC0064613346002280212046FDF787F9A56100
:1033EC00666284F89C520023C4F894326360C4F87B
:1033FC00A432D4F8B8322BB1D4F8B4325B680021C3
:10340C0020469847002070BD01740020704790F84A
:10341C009C3280F89D32042380F89C320020704747
:10342C0090F89C32042B01D00020704790F89D320C
:10343C0080F89C32F8E708B590F89C32032B01D049
:10344C00002008BDD0F8B432DB69002BF8D09847C7
:10345C00F6E70346002002E00130C0B201331A78CF
:10346C00002AF9D1704708B54B88012B00D008BD54
:10347C00C0F8A43200F009FCF9E70B7803704B7824
:10348C0043708B78CA7803EB022343800B794A791B
:10349C0003EB022383808B79CA7903EB0223C3806D
:1034AC00704710B504468021FDF733F90021204602
:1034BC00FDF72FF910BD30B583B005460C4600233F
:1034CC00ADF806304A88130A013B062B00F2A480A3
:1034DC00DFE803F004182CA2A2869300D0F8B032D7
:1034EC001B680DF10601007C9847BDF806201AB147
:1034FC00E388002B40F09480E388002B00F09A8046
:10350C0003B030BD037C43B9D0F8B4329B6A0DF1E3
:10351C000600984702234370E7E7D0F8B432DB6A21
:10352C000DF10600984702234370DEE7D2B2052A5C
:10353C0052D8DFE802F003101D2A3744D0F8B0321D
:10354C005B6823B10DF10601007C9847CDE721465D
:10355C00FFF7A7FFD4E7D0F8B0329B6823B10DF189
:10356C000601007C9847C0E72146FFF79AFFC7E7A2
:10357C00D0F8B032DB6823B10DF10601007C98471E
:10358C00B3E72146FFF78DFFBAE7D0F8B0321B69DD
:10359C0023B10DF10601007C9847A6E72146FFF701
:1035AC0080FFADE7D0F8B0325B6923B10DF10601B5
:1035BC00007C984799E72146FFF773FFA0E7D0F806
:1035CC00B0329B6923B10DF10601007C98478CE762
:1035DC002146FFF766FF93E72146FFF762FF8FE76F
:1035EC00037C33B9D0F8B4325B6B0DF1060098470D
:1035FC007BE72146FFF755FF82E7037C43B9D0F800
:10360C00B4321B6B0DF106009847072343706CE72F
:10361C002146FFF746FF73E72146FFF742FF6FE7AE
:10362C009A4228BF1A46ADF806200146284600F0FB
:10363C000FFB61E7284600F028FB61E738B504462C
:10364C008B88F3B9CB88E3B94B887F2B19D803F05F
:10365C007F0590F89C32032B0CD080F89E522946A3
:10366C00FDF77EF8204600F010FB35B1022384F8FC
:10367C009C3209E0FFF715FF06E0012384F89C3229
:10368C0002E02046FFF70DFF38BD000038B50446B8
:10369C000D468978284B197001290ED890F89C3268
:1036AC00022B0ED0032B21D02946FFF7FAFE224B1A
:1036BC0019782046FFF79EFD02E02946FFF7F1FE40
:1036CC0038BD81B14160032380F89C32FFF786FD41
:1036DC00022803D0204600F0D8FAF1E7294620460C
:1036EC00FFF7DFFEECE700F0D0FAE9E789B14368B9
:1036FC0099421DD0D9B2FFF77DFD0F4B197861604F
:10370C002046FFF76BFD02280DD0204600F0BDFAD5
:10371C00D6E7022380F89C324160FFF76BFD204610
:10372C0000F0B3FACCE729462046FFF7BAFEC7E70C
:10373C0000F0ABFAC4E700BF3C0A002008B5CB8808
:10374C00012B0AD190F89C32022B09D9032B09D1F9
:10375C000122011D00F07CFA01E0FFF7A2FE08BD7A
:10376C005BB213B9FFF79DFEF9E70146002341F860
:10377C00083F012200F06CFAF1E708B590F89C3292
:10378C00013B022B12D8CB88022B0CD10123C36036
:10379C00D0F8A4320BB10323C360022200F10C0158
:1037AC0000F056FA08BDFFF77CFEFBE7FFF779FE49
:1037BC00F8E708B590F89C32013B022B09D84B88EE
:1037CC00012B00D008BD0023C0F8A43200F05DFA34
:1037DC00F8E7FFF766FEF5E708B50B7803F0600332
:1037EC00202B05D0402B03D043B1FFF75AFE03E04A
:1037FC00D0F8B4329B689847002008BD4B78092B51
:10380C001BD8DFE803F011171A141A08051A0E0B4F
:10381C00FFF751FEF0E7FFF711FFEDE7FFF736FF7B
:10382C00EAE7FFF78BFFE7E7FFF7A7FFE4E7FFF710
:10383C001AFEE1E7FFF7BDFFDEE7FFF732FEDBE73D
:10384C0038B505460C460B7803F06003202B06D0E8
:10385C00402B04D01BB1FFF724FE002038BD95F897
:10386C009C32013B022B16D82379012B0ED8D5F8AC
:10387C00B4329B68214628469847E388002BECD14C
:10388C000028EAD1284600F000FAE6E7214628464F
:10389C00FFF707FEE1E721462846FFF702FEDCE7CB
:1038AC0070B505468B880C7804F06004202C07D08A
:1038BC00DAB2402C04D05CB1FFF7F3FD002405E034
:1038CC00D5F8B4329B68284698470024204670BD32
:1038DC00202C09D04E78012E33D0032E0AD0002E86
:1038EC0055D0FFF7DEFDF1E7D0F8B4329B6898476E
:1038FC000446EBE790F89C32022B04D0032B11D03A
:10390C00FFF7CFFDE2E70AB1802A03D12846FFF783
:10391C00C8FDDBE71146FCF7FCFE80212846FCF7CE
:10392C00F8FED3E74B8823B91AB1802A01D0CB8893
:10393C001BB1284600F0A9F9C8E71146FCF7E9FECF
:10394C00F7E790F89C32022B04D0032B11D0FFF731
:10395C00A8FDBBE70AB1802A03D12846FFF7A1FDD9
:10396C00B4E71146FCF7D5FE80212846FCF7D1FEC2
:10397C00ACE74B88002BA9D112F07F0F03D128465E
:10398C0000F083F9A2E71146FCF7CBFEF7E790F8BD
:10399C009C02022806D0032829D02846FFF781FD77
:1039AC00344693E70AB1802A13D113F0800F15D156
:1039BC0002F07F0202EB8202910001F5A87129440A
:1039CC00043100230B600222284600F041F93446F2
:1039DC007CE72846FFF765FD344677E702F07F0267
:1039EC0002EB82029100103129440431E9E75BB209
:1039FC00002B1FDB02F00F0000EB800005EB8000BA
:103A0C00D0F8580120B3002B27DB02F07F0303EB27
:103A1C0083039C0004F5A8742C4404340AB1802A56
:103A2C0024D10023236002222146284600F010F9FD
:103A3C0034464BE702F00F0000EB800005EB8000F2
:103A4C0080690028DFD12846FFF72BFD34463DE77F
:103A5C002846FFF726FD344638E702F07F0303EBD8
:103A6C0083039C0010342C440434D7E711462846B9
:103A7C00FCF75FFE10B101232360D4E70023236021
:103A8C00D1E7D0B170B50D4616460446FFF7E1FC00
:103A9C00431C5B009BB233802B7003236B7002239F
:103AAC0007E001345A1CD2B2E8540233DBB20021D5
:103ABC00A95420780028F4D170BD7047732303807B
:103ACC000048704790000020D0F8B83200201873DE
:103ADC00704700000A23038000487047040100204F
:103AEC0038B5D0F8B8520C7814F0600425D0202CDE
:103AFC0042D14B78023B092B1BD8DFE803F01409A9
:103B0C001A1A1A1A1A1A0F058B782B60002434E033
:103B1C000122294600F09CF800242EE04B881B0A59
:103B2C006B60002429E00122291D00F091F800248B
:103B3C0023E0FFF7B6FC02241FE04B780A2B12D0CF
:103B4C000B2B16D0062B18D14B881B0A212B04D01B
:103B5C0000210A4600F07CF80FE0CA88072A28BF2B
:103B6C0007220749F6E7012205F1080100F070F879
:103B7C0003E08B78AB6000E00024204638BD00BF2A
:103B8C00A200002010B504464021FCF7BAFDD4F881
:103B9C00B80220B1FCF700FE0023C4F8B8320020B4
:103BAC0010BD000010B50446402303228121FCF710
:103BBC009DFD4023032201212046FCF797FD402365
:103BCC00084A01212046FCF7DBFD1020FCF7E0FD44
:103BDC00C4F8B80218B100230373184610BD0120B5
:103BEC00FCE700BF400A0020D0F8B832187B7047C1
:103BFC0010B5D0F8B84290F89C32032B01D00020BD
:103C0C0010BD237B002BFAD10123237313460A46E4
:103C1C008121FCF7ADFDF2E7012901D002207047AC
:103C2C0070B50446094D40212846FCF775FB40262B
:103C3C0032460021284600F089F833462A460121F5
:103C4C002046FCF79DFD002070BD00BF400A0020FF
:103C5C0008B513460222C0F89422C36103620A46D7
:103C6C000021FCF785FD002008BD08B513460A4667
:103C7C000021FCF77DFD002008BD08B513460A465F
:103C8C000021FCF77DFD002008BD08B50423C0F819
:103C9C00943200231A461946FCF76AFD002008BD31
:103CAC0008B50523C0F8943200231A461946FCF7D0
:103CBC0067FD002008BD00000C480D490D4A00238B
:103CCC0002E0D458C4500433C4188C42F9D30A4AC5
:103CDC000A4C002301E013600432A242FBD3FFF72D
:103CEC0059FA00F00FF8FCF7B7FA70470000002003
:103CFC0010010020F43D000810010020800A002073
:103D0C00FEE7000070B500260C4D0D4C641BA41092
:103D1C00A64209D100F022F800260A4D0A4C641B79
:103D2C00A410A64205D170BD55F8043B9847013646
:103D3C00EEE755F8043B98470136F2E7EC3D0008F6
:103D4C00EC3D0008EC3D0008F03D00080346024441
:103D5C00934200D1704703F8011BF9E7F8B500BF97
:103D6C00F8BC08BC9E467047F8B500BFF8BC08BC50
:043D7C009E467047A8
:103D800053544D33322048756D616E20696E7465F1
:103D9000726661636500000053544D6963726F651C
:103DA0006C656374726F6E696373000048494420E8
:103DB000436F6E666967000048494420496E746528
:103DC00072666163650000000203040506070809C6
:103DD0000A0B0C0D0E0F1010000000000000000078
:0C3DE000000000000102030406070809AF
:043DEC003101000899
:043DF0000D010008B9
:103DF400510400085D04000821050008FD040008C2
:103E0400E90400083D0500086105000812010002EC
:103E14000000004083042B5700020102030100004C
:103E2400040309041A03000000000000000000005D
:103E3400000000000000000000000000000001007D
:103E4400100000000024F400B13B0008913B00087E
:103E5400ED3A00080000000000000000D53A000818
:103E6400253C0008000000000000000000000000E5
:103E7400C93A0008C93A0008C93A0008E13A0008FA
:103E84000902730001010080FA0904000002010321
:103E94000000072401000161000624020201000958
:103EA4002403010201010100062402011100092476
:103EB4000302120111010006240201130009240364
:103EC400021401130100062402011500092403024F
:103ED4001601150100090501024000000000072534
:103EE4000103111315090581024000000000052596
:103EF400010102000A060002000000400100000067
:0400000508003CC5EE
:00000001FF
